:100000000C943B000C9445000C9445000C94450066
:100010000C9445000C9445000C9445000C9445004C
:100020000C9445000C9445000C9445000C9445003C
:100030000C9445000C9445000C9445000C9445002C
:100040000C9445000C94FE000C9445000C94450063
:100050000C9445000C9445000C9445000C9445000C
:100060000C9445000C9445007C009000A400B8005E
:10007000E600CE00CC0011241FBECFEFD8E0DEBFDB
:10008000CDBF0E9424010C942F010C94000084B178
:10009000806184B984B1837D84B980EC8CBD78940F
:1000A000089584B1886484B98AB184688AB981EA80
:1000B0008093800082E080938100109289001092EA
:1000C000880010928B0010928A008BB18B7F8BB9C5
:1000D0008BB18F778BB90895DC014C91E42FE695B5
:1000E000E6954E2F50E04730510508F086C0FA01E2
:1000F000EC5CFF4F0C9429018BB184608BB98BB100
:1001000080688BB99C91937025E5929F902D112466
:1001100097BD8C918370829F802D112488BD089596
:100120008BB18B7F8BB98BB18F778BB99C9193708F
:1001300025E5929F902D112497BD8C918370829F0D
:10014000802D112488BD08958BB184608BB98BB14B
:100150008F778BB99C91937025E5929F902D1124F8
:1001600097BD8C918370829F802D112488BD089546
:100170008BB180688BB98BB18B7F8BB99C9193705D
:1001800025E5929F902D112497BD8C918370829FBD
:10019000802D112488BD089517BC18BC8C918370E4
:1001A00095E5899F802D112488BD8C91837029F05D
:1001B000899F802D1124825301C080E087BD8BB1BF
:1001C00084608BB98BB180688BB908958C918370F2
:1001D00095E5899F802D112487BD8C91837029F02E
:1001E000899F802D1124825301C080E088BD8BB18E
:1001F00084608BB98BB180688BB908951F920F9280
:100200000FB60F9211242F933F934F935F936F93E9
:100210007F938F939F93AF93BF93EF93FF938EE45E
:1002200090E00E946C00FF91EF91BF91AF919F9180
:100230008F917F916F915F914F913F912F910F908F
:100240000FBE0F901F9018950E9451000E9447000A
:10025000FFCFEE0FFF1F0590F491E02D0994F89465
:02026000FFCFCE
:00000001FF
